:020000040800F2
:1000000050070020F50100082F1C0008FF1A000807
:100010002D1C0008630800080126000800000000ED
:10002000000000000000000000000000331C000879
:100030006508000800000000311C00086920000865
:100040000F0200080F0200080F0200080F0200084C
:100050000F0200080F0200080F0200080F0200083C
:100060000F0200080F0200080F0200080F0200082C
:100070000F0200080F0200080F0200080F0200081C
:100080000F0200080F0200080F0200080F0200080C
:100090000F0200080F0200080F0200080F020008FC
:1000A0000F0200080F0200080F0200080F020008EC
:1000B0000F0200080F0200080F0200080F020008DC
:1000C0000F0200080F0200080F0200080F020008CC
:1000D0000F020008F52500080F0200080F020008B3
:1000E0000F0200080F0200080F0200080F020008AC
:1000F0000F0200080F0200080F0200080F0200089C
:100100000F0200080F0200080F0200080F0200088B
:100110000F0200080F0200080F0200080F0200087B
:100120000F0200080F0200080F0200080F0200086B
:1001300000F002F800F04EF80AA090E8000C8244AB
:100140008344AAF10107DA4501D100F043F8AFF288
:10015000090EBAE80F0013F0010F18BFFB1A43F0A5
:10016000010318471030000030300000103A24BF5F
:1001700078C878C1FAD8520724BF30C830C144BF0C
:1001800004680C607047000000230024002500264E
:10019000103A28BF78C1FBD8520728BF30C148BFEA
:1001A0000B607047642900F08380752900F080801F
:1001B000732900F0B882002070471FB500F00AFBD9
:1001C00004000020002102F011FD401C60601FBDF2
:1001D00010B510BD00F010FB1146FFF7EEFF02F066
:1001E00067FA00F02EFB03B4FFF7F2FF03BC00F048
:1001F00031FB00000948804709480047FEE7FEE759
:10020000FEE7FEE7FEE7FEE7FEE7FEE7FEE7FEE7C6
:1002100004480549054A064B70470000CB200008FA
:100220003101000850010020500700205003002039
:10023000500300200FB41CB5074B06AA7B44694647
:100240000090059800F045FA0020694600F054FA45
:100250001CBC5DF814FB0000B904000070B50C462E
:100260000546012A05D02878800600D5EA690023D2
:1002700002E0012305E05B1C934202D2E05C00280F
:10028000F9D1A869E618C01AA861286A184428623A
:100290002846AFF3008004E0D5E9012114F8010BF2
:1002A0009047B442F8D32846AFF3008070BD0000F9
:1002B0002DE9F0410646002410687529314616A53F
:1002C00010D0AFF30080002802DA404213A507E007
:1002D00031688A0701D512A502E0490704D511A5A6
:1002E000012401E0AFF3008000210A2206F1240777
:1002F00009E0B0FBF2FCB0FBF2F302FB1C00303073
:1003000078541846491C0028F3D123462A46304623
:10031000BDE8F04100F07EB9000000002D000000B3
:100320002B000000200000002DE9F0410F4605469B
:10033000002028622846E968884770B3252805D040
:10034000D5E901219047286A401CF2E7E968284670
:10035000002688476C2804460AD0682C08D04C2C0C
:1003600035D06A2C31D0742C31D07A2C2FD016E0B5
:10037000E968064628468847B042044608D16C2EF4
:1003800023D04FF480662846E9688847044606E093
:100390006C2E03D04FF4807601E01EE04026E4B1DD
:1003A000A4F14100192802D8203446F400663A46E8
:1003B000214628462E60FFF7F5FE60B1012808D0DF
:1003C000FF1D27F007070837B4E78026DBE7002684
:1003D000D9E73F1DAEE72046B2E7286ABDE8F081C5
:1003E0002DE9F05F93460F4680460446002600F054
:1003F0000DF9D0F80090824614F8015B2DB100F0A1
:10040000FDF80068405DC007F6D12B2D02D02D2DE0
:100410001AD0641E0021CAF800105A4639462046F8
:1004200000F085F9014627B13868A04201D1C7F82C
:100430000080DAF80000022809D0CAF800907005A0
:1004400005D54842BDE8F09F46F48066E2E70846DD
:10045000F8E710B5431C02E010F8011B71B18107E9
:10046000FAD14FF0013202C88C1A8C4314EAC2113F
:10047000F9D0C01A0A0603D0C01E10BDC01A10BDA4
:100480000A0401D0801E10BD0902FCD0401E10BD20
:1004900040EA010370B59B072ED14FF00136042AC4
:1004A0002AD308C810C99D1B9D43121F15EAC61503
:1004B00017D0D8B2E1B2401A50EA056110D198B213
:1004C000A1B2401A50EA05410AD123F07F4024F03E
:1004D0007F41401A50EA052102D1180EA0EB1460AA
:1004E00070BDA342DBD018BA21BA884201D90120DD
:1004F00070BD4FF0FF3070BD0AB9002070BD10F81C
:10050000013B11F8014B63B1A3420AD1521E08D03E
:1005100010F8013B11F8014B1BB1A34201D1521E4F
:10052000EDD1181B70BD4FF0000200B51346944684
:100530009646203922BFA0E80C50A0E80C50B1F13B
:100540002001BFF4F7AF090728BFA0E80C5048BF4F
:100550000CC05DF804EB890028BF40F8042B08BFED
:10056000704748BF20F8022B11F0804F18BF00F8E9
:10057000012B70474FF0013C50F8042B51F8043B1D
:100580009A4221D1A2EB0C03934313EACC1317D167
:1005900050F8042B51F8043B9A4215D1A2EB0C03FE
:1005A000934313EACC130BD150F8042B51F8043BBE
:1005B0009A4209D1A2EB0C03934313EACC13DBD08C
:1005C0004FF00000704700BFD01A01BAB1FA81F1B4
:1005D00001F0180122FA01F0CB40C1F12001DBB299
:1005E000C0B2C01A2CFA01F3D11A914311EAC31117
:1005F000E6D17047704770477047000010B500F0B3
:10060000E9F8001D10BD00BFE52500000048704757
:10061000EC0000202DE9F0470D469946924604462D
:1006200000F124080168880604D5E06921F0100172
:10063000216000E00120A84201DD471B00E0002707
:10064000A1697A1902EB0900081AA0612078C00696
:1006500002D42046AFF30080002608E0D4E901214F
:100660001AF806009047206A401C761C20624E450E
:10067000F4DB2078C0060AD52046AFF3008006E000
:10068000D4E9012130209047206A401C2062381EA6
:10069000A7F10107F4DC07E0D4E9012118F805000F
:1006A0009047206A401C2062281EA5F10105F3DC5A
:1006B0002046AFF300802078000602D50220BDE876
:1006C000F0870120FBE7000001694A1C02610878FD
:1006D000704700B58FB0CDE9013100210591054982
:1006E0007944CDE9031011466846FFF71DFE0FB0AF
:1006F00000BD0000E5FFFFFF0A6802F8010B0A6079
:10070000704710B5436913B1AFF3008001E0FFF704
:10071000A5FD012010BD127800F124010A7000220D
:100720004A700122EDE711684FF0FF32E9E72DE949
:10073000F05F824615468B4600270AF10104B94650
:100740000078302801D09DB113E014F8010B012787
:10075000782803D0582801D045B10AE00DB1102DFA
:1007600007D1002714F8010B102502E0082500E04E
:100770000A250026B0460EE005FB080005FB06F141
:1007800001271FFA80F801EB1046B6F5803F00D331
:10079000B94614F8010B294600F020F80028EBDADE
:1007A000BBF1000F05D00FB1641E00E05446CBF83A
:1007B0000040B9F1000F06D0FFF728FF02210160C9
:1007C000C81EBDE8F09F48EA0640FAE700487047B7
:1007D000EC000020004870470C0100203A2800D2AD
:1007E000303820F02002412A01D3A2F1370088429C
:1007F00001D34FF0FF3070477546FFF7E7FFAE4675
:1008000005006946534620F00700854618B020B51C
:10081000FFF7FEFCBDE820404FF000064FF0000758
:100820004FF000084FF0000B21F00701AC46ACE898
:10083000C009ACE8C009ACE8C009ACE8C0098D4605
:10084000704710B50446AFF300802046BDE8104065
:10085000FFF7C9BC01491820ABBEFEE72600020025
:100860007047FEE7704772B6FEE710B590F82110AA
:100870000022022905D00421816380F82020012074
:1008800010BD01680B6823F00E030B6001680B6854
:1008900023F001030B6090F84030C46B012101FA92
:1008A00003F3636080F8211080F82020104610BD0B
:1008B0002DE9F05F90F821100024022903D00421D3
:1008C0008163012485E001680A6822F00E020A6053
:1008D00001680A6822F001020A603F4E3E4FB215DD
:1008E000DFF8F4C0DFF8F090DFF8ECA0DFF8E8B054
:1008F000DFF8E4E00168783F13011502ACF1640C05
:10090000A9F15009AAF13C0AABF1280BAEF1140E83
:100910004FF48018B14227D9B9420ED0614512D0A8
:1009200049451DD0514518D0594518D0714501D1C0
:10093000424615E0294EB14201D1012210E0274E76
:100940001436B14201D110220AE0244E2836B142B9
:1009500006D0224A3C32914201D11A4600E02A4692
:100960001E49091F0A602BE0B94213D0614517D018
:10097000494522D051451DD059451DD0714501D161
:1009800042461AE0B14202D14FF0807215E0134E98
:10099000B14201D1012210E0104E1436B14201D112
:1009A00010220AE00D4E2836B14206D00B4A3C32E6
:1009B000914201D11A4600E02A46074980394A602F
:1009C000012180F82110002180F82010416B01B135
:1009D00088472046BDE8F09F80000240080402409E
:1009E00070B5044600F010F90546601C02D00448BA
:1009F0000078044400F008F9401BA042FAD370BD0F
:100A00000C0000202DE9F84FDFF8C8910024A9F16F
:100A1000040B23460F2709F1040AABF1040ED1E0C1
:100A20000125A54006EA0502AA4276D1DFF8A8C151
:100A30004E68A6EB0C0866452BD00DDC032E34D097
:100A400005DC36B3012E19D0022E2FD11BE0112E5A
:100A500016D0122E2AD119E0B8F5881F19D006DC5D
:100A6000B8F5803F15D0B8F5801F1FD111E0B8F55B
:100A7000001F0ED0B8F5041F18D10AE0CB6815E0AE
:100A8000CB681B1D12E0CB6808330FE0CB680C333A
:100A90000CE08B682BB1012B4FF0080303D04561AC
:100AA00004E0042302E0056100E00023FF2A01D8EE
:100AB000064601E000F104064FEA840501D9A5F1DC
:100AC0002005D6F8008007FA05FC28EA0C0803FA8E
:100AD00005F548EA0508C6F800804D68ED0070D5B8
:100AE0003E4DAE6946F00106AE61AD6924F00306E5
:100AF00005F0010500953A4D06EB050CDCF80850B1
:100B0000A607360F07FA06F825EA0805DFF8D480AD
:100B1000404503D14FF0000825E052E0DFF8C880DF
:100B2000404502D14FF001081DE0DFF8C08040458C
:100B300002D14FF0020816E0DFF8B480404502D140
:100B40004FF003080FE0DFF8AC80404502D14FF0D2
:100B5000040808E0DFF8A080404502D14FF0050806
:100B600001E04FF0060808FA06F848EA0508CCF854
:100B700008804D68D9F80060ED024D4601D5164356
:100B800000E096432E604D68DAF80060AD025546ED
:100B900001D5164300E096432E604D68DBF80060F7
:100BA000AD035D4601D5164300E096432E604D68C7
:100BB000DEF80060ED03754601D5164300E096436C
:100BC0002E60641C0A681646E2407FF429AFBDE837
:100BD000F88F0000080401400000111000100240CE
:100BE0000000014000080140000C014000100140DD
:100BF0000014014000180140001C014080680840BA
:100C000000D0012070470000014880687047000054
:100C10000C0000200248816802781144816070470E
:100C20000C000020074810B5016841F01001016078
:100C3000032000F075F80F2000F006F800F024F80B
:100C4000002010BD0020024070B50D4D04464FF449
:100C50007A712878B1FBF0F00A490968B1FBF0F02D
:100C600000F0DCFA48B9102C07D200222146501EB1
:100C700000F036F800206C6070BD012070BD0000EF
:100C80000C000020180000200C4808B5816941F0D4
:100C900001018161816901F001010091C16941F0A7
:100CA0008051C161C06900F08050009004484168E3
:100CB00021F0E06141F08061416008BD0010024018
:100CC00000000140002809DB00F01F0201219140D3
:100CD0004009800000F1E020C0F8001170470000DA
:100CE000F0B40E4B1B680C46C3F30223C3F1070597
:100CF000042D00D90425191D072901D2002300E085
:100D0000DB1E012606FA05F1491E214099409E404E
:100D1000761E16403143F0BC01F073BC0CED00E0D0
:100D2000064900F0070208684FF6FF03184040EA42
:100D30000220034A10430860704700000CED00E0F9
:100D40000000FA052DE9F0470F46050061D0434E3B
:100D5000306800F00700B84209D2306820F0070080
:100D600038433060306800F00700B84251D128683D
:100D70003B4C810712D5400703D5606840F4E06022
:100D800060602878000703D5606840F460506060B8
:100D90006068A96820F0F000084360602878C00708
:100DA00028D06868012810D02168022810D089074F
:100DB00000292EDA616821F0030101436160FFF729
:100DC00023FF804641F288390DE021688903EFE76F
:100DD0008901EDE7FFF718FFA0EB0801494502D9AB
:100DE0000320BDE8F0876068696800F00C00B0EB94
:100DF000810FEFD1306800F00700B8420BD930689E
:100E000020F0070038433060306800F00700B84237
:100E100001D00120E5E72878400705D56068E9683A
:100E200020F4E060084360602878000706D5606819
:100E3000296920F4605040EAC100606000F038F891
:100E40006168084AC1F30311515CC8400649086053
:100E500006480068FFF7F8FE0020C2E700200240C5
:100E6000001002405431000818000020100000203B
:100E70000448054900684968044AC1F30221515CED
:100E8000C84070471800002000100240643100087C
:100E90000448054900684968044AC1F3C221515C0D
:100EA000C84070471800002000100240643100085C
:100EB0000E4A51680E4801F00C03042B11D0082B88
:100EC0000FD10C48C1F38343C903C05C0AD55168F4
:100ED000084AC1F34041921E515C054A5043B0FBA1
:100EE000F1F0704704494843704700000010024089
:100EF00000127A004431000800093D002DE9F84F46
:100F0000040070D02078C04DC00749D06868C0F395
:100F10008100012807D06868C0F38100022809D148
:100F20006868C00306D52868800339D56068002842
:100F3000E7D035E06068B0F5803F0BD010B1B0F578
:100F4000A02F11D0286820F480302860286820F471
:100F5000802002E0286840F480302860606890B10A
:100F6000FFF752FE06460AE0286840F48020286019
:100F7000F0E700BFFFF748FE801B642873D828689D
:100F80008003F7D50CE0FFF73FFE064605E000BF03
:100F9000FFF73AFE801B6428F0D828688003F7D456
:100FA00020789A4E80074FF001094FF0000839D59C
:100FB000686810F00C0F07D06868C0F38100022841
:100FC00009D16868C00306D42868800714D5206951
:100FD000012808D110E02069B0B1C6F80090FFF7F1
:100FE00013FE074605E00AE1FFF70EFEC01B0228CC
:100FF000C4D828688007F7D52868616920F0F80010
:1010000040EAC10028600DE0C6F80080FFF7FCFD53
:10101000074604E0FFF7F8FDC01B022823D8286824
:101020008007F7D4207800072CD57948A169D9B179
:10103000C0F80090FFF7E8FD074604E0FFF7E4FD85
:10104000C01B02280FD8686A8007F7D571484FF493
:10105000FA510068B0FBF1F0009000BF0098411E0B
:101060000091FAD20EE080E0C0F80080FFF7CCFDDE
:10107000074604E0FFF7C8FDC01B022875D8686A60
:101080008007F7D42078400760D5E8690027C000C2
:1010900008D4E86940F08050E861E869012700F071
:1010A000805000905C480168C90513D401688346EC
:1010B00041F480710160FFF7A7FD824606E000BFA2
:1010C000FFF7A2FDA0EB0A0064284ED8DBF8000071
:1010D000C005F5D5E06801280AD008B1052813D06D
:1010E000286A20F001002862286A20F0040002E04B
:1010F000286A40F001002862E06841F2883B98B11C
:10110000FFF782FD82460BE0286A40F00400286267
:10111000EEE700BFFFF778FDA0EB0A0159455AD86A
:10112000286A8007F6D50CE0FFF76EFD824605E0E1
:10113000FFF76AFDA0EB0A0159454CD8286A8007E1
:10114000F6D41FB1E86920F08050E861E06988B307
:101150006968C1F38101022944D00228C6F8608081
:1011600004D0FFF751FD044638E034E0FFF74CFDB2
:10117000074604E0FFF748FDC01B02282BD828686B
:101180008001F7D4206AB0F5803F05D16868A16876
:1011900020F4003008436860D4E908010843696816
:1011A00021F4741108436860C6F86090FFF72CFDC5
:1011B000044606E025E000BFFFF726FD001B0228DD
:1011C00009D828688001F7D51BE000BFFFF71CFD98
:1011D000001B022802D90320BDE8F88F286880018F
:1011E000F4D40EE00128F7D06868226A00F4803158
:1011F000914204D1616A00F47010884201D001204C
:10120000EAE70020E8E70000001002400000424248
:1012100080044242180000200070004010B5401EBB
:10122000B0F1807F01D3012010BD4FF0E024606158
:101230000F21601701F0E5F90020A061072020616F
:10124000002010BD70B590F83C20012A2CD001245C
:1012500080F83C40022280F83D2003685A689D686F
:1012600022F070060A6832435A60104B02689A42B4
:101270000ED00F4B9A420BD0B2F1804F08D00D4BDD
:101280009A4205D00C4B9A4202D00C4B9A4204D1A0
:10129000496825F080031943916080F83D400021A2
:1012A00080F83C10084670BD022070BD002C014043
:1012B000003401400004004000080040000C0040E1
:1012C00010B5040003D094F83D0010B107E00120F0
:1012D00010BD002084F83C00204600F01FF80220DA
:1012E00084F83D00211D206800F0F0FE012084F804
:1012F000460084F83E0084F83F0084F8400084F8FB
:10130000410084F8420084F8430084F8440084F8E3
:10131000450084F83D00002010BD000008B50068BD
:101320000649884208D10648816941F4005181612B
:10133000806900F40050009008BD000000340140B6
:101340000010024070B5044690F83C0000250128CA
:1013500017D0012684F83C60022084F83D00206804
:10136000826822F0770222F47F4282600868502867
:1013700038D00DDC20284FD005DC90B3102811D1D7
:101380004AE0022070BD302846D040280AD13BE018
:1013900060282FD070280DD0B0F5805F03D0B0F555
:1013A000005F12D0012584F83D60002084F83C00E5
:1013B000284670BDCB68D1E90121206800F0E1FE2C
:1013C0002068816841F0770109E0CB68D1E901210B
:1013D000206800F0D6FE2068816841F48041816079
:1013E000E1E719E0CA684968206800F09FFF5021D2
:1013F000206806E0CA684968206800F0A8FF6021FC
:10140000206800F0C8FECEE7CA684968206800F08E
:101410008DFF40212068F4E7226801461046F0E77E
:1014200000B585B0002100910191029103910068FF
:101430000C49884213D10C48816941F01001816147
:101440008069694600F0100004904FF460700090CD
:1014500002200190032003900448FFF7D3FA05B05F
:1014600000BD0000003401400010024000100140A7
:1014700070B5044690F83C0000260D4601280FD0B8
:10148000012084F83C006AB1042A1DD0082A2FD01C
:101490000C2A3FD00126002084F83C00304670BD65
:1014A000022070BD206800F07FFE2068816941F055
:1014B000080181612068816921F00401816120684F
:1014C00081692A69114311E0206800F09DFE2068BF
:1014D000816941F4006181612068816921F4806142
:1014E0008161206881692A6941EA02218161D2E72C
:1014F000206800F0BFFE2068C16941F00801C161A9
:101500002068C16921F00401C1612068C1692A69AC
:10151000114311E0206800F0E1FE2068C16941F448
:101520000061C1612068C16921F48061C1612068E6
:10153000C1692A6941EA0221C161ACE710B5040022
:1015400003D094F83D0010B107E0012010BD002049
:1015500084F83C00204600F01EF8022084F83D008C
:10156000211D206800F0B2FD012084F8460084F8B7
:101570003E0084F83F0084F8400084F8410084F87D
:10158000420084F8430084F8440084F8450084F85D
:101590003D00002010BD704710B50446022249B13D
:1015A00004290ED0082913D094F84100012816D040
:1015B000012010BD94F83E000128F9D184F83E20A6
:1015C0000FE094F83F000128F2D184F83F2008E0B2
:1015D00094F840000128EBD184F8402001E084F821
:1015E00041200122206800F0BFFD13492068134A02
:1015F000884201D0904203D1436C43F400434364DA
:10160000206888420DD090420BD0B0F1804F08D0B6
:101610000B49884205D00B49884202D00A498842CA
:1016200004D1816801F00701062903D0016841F067
:1016300001010160002010BD002C01400034014078
:101640000004004000080040000C0040704700000B
:1016500000680449884204D101220349034800F08C
:10166000AFB9704700380140000000205C00002046
:10167000F8B5016804460868CA684B6910F00F0F96
:101680004FF0000559D003F0010602F4907737437C
:1016900065D0C10705D0D10503D5616C41F00101CA
:1016A0006164410705D5D90703D0616C41F002019F
:1016B0006164810705D5D90703D0616C41F004014D
:1016C0006164010707D502F02001314303D0616C4A
:1016D00041F008016164616C00293AD0800604D5AC
:1016E000900602D5204600F073FE20684069616CC8
:1016F000C0F38010090700D460B3204600F041FE1B
:1017000020684069400621D52068143050E8001F49
:1017100021F0400140E80012002AF5D1E06BA8B1A9
:101720006D494163E06BFFF7C3F8002811D0E06B0F
:10173000416B01B0BDE8F040084783060FD5930622
:101740000DD52046BDE8F84000F042BE2046FFF728
:101750007FFFF8BD2046FFF77BFF6564F8BD266B71
:101760002023012E7CD1C6067AD5D60678D5086806
:101770004868009048694FF00206400640D5E16B8A
:10178000086840680004000CE8D0A28D8242E5D9C8
:10179000E085886920282DD020680C3050E8001F93
:1017A00021F4807140E80012002AF5D1206814303D
:1017B00050E8001F21F0010140E80012002AF5D195
:1017C0002068143050E8001F21F0400140E800126A
:1017D000002AF5D184F84230256320680C3050E8A7
:1017E000001F21F0100140E80012002AF5D1E06B43
:1017F000FFF73BF86663A08DE18D401A81B22AE0C5
:10180000A08DE18D401A81B2E08D0028A6D000297C
:10181000A4D022680C3252E8000F20F4907042E805
:101820000007002FF5D12068143050E8002F22F077
:10183000010240E80027002FF5D184F842302563EB
:1018400020680C3050E8002F22F0100240E80023FE
:10185000002BF5D166632046FFF7F8FEF8BDFFE7E1
:1018600005062BD5150629D594F841002128F5D178
:10187000A068B0F5805F01D12069B0B1206A411C39
:101880002162216800784860E08C401E0004000C52
:10189000E084E3D12068C16821F08001C160206844
:1018A000C16841F04001C160D8E7206A0088C0F3F8
:1018B00008004860206A801C2062E5E74006CDD51C
:1018C0005006CBD5CA68204622F04002CA6084F890
:1018D000413000F013F9C1E77323000870B504002C
:1018E00004D094F84100002510B106E0012070BD3D
:1018F00084F84050204600F023F8242084F841006A
:101900002068C16821F40051C160204600F0C2FD8A
:101910002068016921F4904101612068416921F04A
:101920002A0141612068C16841F40051C1606564C9
:10193000202084F8410084F842006563002070BDD7
:1019400030B585B00024009401940294039400689B
:10195000184988422CD11848816941F4804181613D
:10196000816901F480410491816941F00401816140
:101970008069124D00F0040004904FF40070009054
:10198000022001900320039069462846FFF73AF8A9
:101990002815CDE90004694628460294FFF732F87D
:1019A000002211462520FFF79BF92520FFF78AF931
:1019B00005B030BD00380140001002400008014071
:1019C00090F84230202B01D00220704721B11AB18B
:1019D0000023036300F0BABD0120704770B5194CB5
:1019E0000068194A217890422AD16078A278401C78
:1019F00000F03F00904203D0144B65785955607059
:101A0000A1F14100192801D82031C9B2E07810A213
:101A1000125C8A4207D1401CC0B2E070042806D193
:101A200000F00EFB01E0732908D00020E070BDE853
:101A30007040012203490848FFF7C2BF0120F5E7C3
:101A400070BD000000000020003801401C00002094
:101A500073746F70000000005C0000202DE9F843F3
:101A6000044690F84100984616460D46202802D0BC
:101A70000220BDE8F88385B17EB10020606421209A
:101A800084F84100FFF7C0F8A6848146E684A06888
:101A90002027B0F5805F02D003E00120E9E720694C
:101AA00010B12E4600250EE000260CE080212046D5
:101AB00000F067FDA8B9C6B116F8010B21684860AF
:101AC000E08C401EE084E08C4B464FF00002CDF8E5
:101AD00000800028EAD14FF04001204600F051FD7F
:101AE00040B184F841700320C3E735F8020BC0F31E
:101AF0000800E3E784F841700020BAE77047FEE78A
:101B000000B585B0002001900290039008488169DB
:101B100041F0040181618069694600F0040004908D
:101B2000022000900348FEF76DFF05B000BD0000E5
:101B3000001002400008014010B58EB00024079448
:101B4000089409940A940B941C2168460C94FEF79F
:101B5000EAFC27482549C0E900142021816040F2B1
:101B60000771C0E903148021C0E90541FFF7A8FB14
:101B700008B1FEF778FE4FF48050079007A91C4883
:101B8000FFF7E0FB08B1FEF76EFE1948FFF7D6FC41
:101B900008B1FEF768FE0B940BA915480C94FFF7EB
:101BA00051FB08B1FEF75FFE6020CDE9000402940E
:101BB000039404940594042269460D480694FFF7A3
:101BC00057FC58B9082269460948FFF751FC28B963
:101BD0000C2269460648FFF74BFC08B1FEF743FEAE
:101BE0000348FFF71DFC0EB010BD0000003401409B
:101BF000A40000200C4810B50A4901604FF4E131FF
:101C00004160002181600C22C160C0E90412816141
:101C1000C161FFF763FE002803D0BDE81040FEF766
:101C200022BE10BD003801405C000020FEE7FEE748
:101C300070477047124810B5016841F0807101602B
:101C4000104800214160026842F0010202600E4C1F
:101C5000217004210D48FFF79FFC48B908210B486B
:101C6000FFF79AFC20B90C210848FFF795FC08B152
:101C7000FEF7F9FD00F04AFE05A0606010BD00000F
:101C8000FCED00E0001000E004000020A4000020B3
:101C900052454144590000002DE9F047194C814656
:101CA00009B1142901D918A014E0002020701BA04C
:101CB000606001EB41004FF6FF7101EA400600252C
:101CC0004FF0060846F2A81714E0207830B100F073
:101CD0001DFE15A060600020BDE8F087B5FBF8F19F
:101CE00008FB1150494600F09DFC384600F0CCFC42
:101CF0006D1CADB2B542E8D300F008FE0EA06060E6
:101D00000120E9E704000020494E56414C49442097
:101D10004A4F4720434F554E540000004A4F47203A
:101D200052554E4E494E470053544F5020434F4D4D
:101D30004D414E44000000004A4F47204F4B0000E9
:101D40000148406870470000040000202DE9F04F72
:101D5000064685B0002082460390022002900020B3
:101D60004FF4B477604C80460190BE4201D95FA029
:101D7000A9E00020207061A0606000F0C7FD00F0C5
:101D800009F9050020D42078F0B903E060A09AE0BA
:101D900064A098E0BE4200D1002606EB86004FEA20
:101DA0004009FEF731FF0646B34644F62067049526
:101DB00090E0207810B100F0A9FDE9E700F0EAF822
:101DC000050001D4207820B100F0A0FD002DDFDA5D
:101DD000DCE72946484600F073FE002800DA40425E
:101DE0001E2812D800F092FD08F1010000F0FF0853
:101DF000B8F1030F05D34FA06060012005B0BDE826
:101E0000F08F0A20FEF7ECFD64E04FF00008414639
:101E1000A5EB090002E000BF00F561600028FBDBD4
:101E20004FF46162904202DBA0F56160FAE7029A2A
:101E3000012A0DD891420BD0019A4FF0000A521C92
:101E4000D2B20192042A03D300F060FD3FA03AE031
:101E5000039A02910C2A02D246F2A8100CE06428E0
:101E600002DC47F2305007E0B0F5967F02DC45F225
:101E7000F05001E043F698200090504600F0D2FB6D
:101E80000AF1010000F0FF0ABAF1060F01D34FF08A
:101E9000000A009800F0F8FB0398401C0390FEF73E
:101EA000B3FEA0EB0B0040F6C411884212D32846C3
:101EB000049900F005FE002800DA40420A2805D205
:101EC00000F024FD27A06060002097E70495FEF74E
:101ED0009BFE8346FEF798FE801BB842FFF469AF75
:101EE00000F014FD26A0EEE704000020494E564104
:101EF0004C4944205441524745540000504F5349E7
:101F000054494F4E2052554E4E494E470000000056
:101F10004153353630302050574D20494E56414CB4
:101F20004944000053544F5020434F4D4D414E44BF
:101F300000000000504F534954494F4E204F4B2052
:101F4000284357204F4E4C59290000004449524520
:101F50004354494F4E204F5343494C4C4154494FF1
:101F60004E0000005354414C4C3A20414E474C45E2
:101F700020444944204E4F54204348414E47450099
:101F8000504F534954494F4E2054494D454F555495
:101F9000000000002DE9F04142F2107631460020A9
:101FA00000F0FEFD4FF0FF38C0B13146012000F0D7
:101FB000F7FD98B11D4C656837463146002000F0AA
:101FC000EFFD58B160683946461B012000F0E8FD7E
:101FD00020B16068401B01D0864202D34046BDE874
:101FE000F08100F059FF0446304600F055FF2146CD
:101FF00000F074FE0E4901F02FF80E4900F06EFE5D
:102000000D4C214600F05CFF10F1FF4F01D2A042C1
:1020100000DB0020094900F053FF4FF07C5100F035
:10202000FBFDBDE8F04100F01BBF0000001000E028
:102030000AD7A33C8FC2753F0000B4430000204183
:1020400010B5044C0120207000F060FC02A060601C
:1020500010BD00000400002053544F5020434F4D4A
:102060004D414E4400000000FEF7D4BD30B58FB0A6
:1020700028216846FEF757FA14210AA8FEF753FAFA
:1020800001210804CDE900100024029402250491E6
:10209000CDE907504FF4E01009906846FEF72EFF97
:1020A00008B172B6FEE70F20CDE90A054FF4806053
:1020B000CDE90C4002210AA80E94FEF743FE002849
:1020C00001D072B6FEE70FB030BD7047F0B50268C0
:1020D000204C214D214E224F224B4FF0804CA042EC
:1020E00009D0984207D0604505D0A84203D0B0423D
:1020F00001D0B84204D122F0700E4A6842EA0E02C2
:10210000A04209D0984207D0604505D0A84203D02C
:10211000B04201D0B84203D122F44075CA682A43C4
:102120004D6922F080022A4302608A68C2620A680E
:102130008262A04201D0984201D109690163012164
:1021400041610169C90703D0016921F00101016101
:10215000F0BD0000002C01400004004000080040D9
:10216000000C00400034014010B501F01F030121B4
:10217000046A99408C430462016A9A4011430162E7
:1021800010BD10B5846842EA032224F47F440A4358
:102190002243826010BD826822F070020A4342F03E
:1021A0000701816070470000F0B5036A026A22F0FF
:1021B0000102026242688469124E24F073050C68C1
:1021C0002C4323F002058B682B430D4DA84201D010
:1021D000B04205D123F00807CB683B4323F004034A
:1021E000A84201D0B04205D14D6922F44072154396
:1021F0008A692A4342608461496841630362F0BD91
:10220000002C014000340140F0B5026A036A23F05B
:1022100010030362436884690D6824F4E64444EAC9
:1022200005248D6822F0200242EA05120F4D104E5F
:10223000A84201D0B04206D1CF6822F0800242EA23
:10224000071222F04002A84201D0B04207D14D69E6
:1022500023F4406343EA85038D6943EA85034360C1
:102260008461496881630262F0BD0000002C014076
:1022700000340140F0B5026A036A23F480730362FC
:102280004368C46922F4007224F073050C68124E8E
:102290002C438D6842EA05220E4DA84201D0B0427F
:1022A00006D1CF6822F4006242EA072222F480625B
:1022B000A84201D0B04207D14D6923F4405343EA0C
:1022C00005138D6943EA05134360C4614968C1631E
:1022D0000262F0BD002C01400034014030B5046AB8
:1022E000026A22F4805202624268C3690D6823F4D4
:1022F000E64343EA05238D6824F4005444EA053498
:10230000084DA84202D0084DA84204D14D6922F4DC
:10231000804242EA85124260C361496801640462F6
:1023200030BD0000002C01400034014010B5036AAC
:10233000046A24F001040462846924F0F00444EA8D
:10234000021423F00A020A438461026210BD10B530
:10235000036A046A24F010040462846923F0A00371
:1023600024F4704444EA023243EA011182610162BA
:1023700010BD10B5406A0021C185C184FFF768F91E
:1023800010BD01680C3151E8002F22F4907241E831
:102390000023002BF5D10168143151E8002F22F001
:1023A000010241E80023002BF5D1016B012909D17D
:1023B00001680C3151E8002F22F0100241E800239F
:1023C000002BF5D1202180F84210002101637047D5
:1023D00008B590F84210222901D0022008BD826879
:1023E0004FF480539A4201D1016921B1816A9A4226
:1023F0001BD04AB10AE00268816A5268C2F308023F
:102400000A80816A891C08E0026972B10268526818
:1024100002F07F020A70816A491C8162C18D491EE7
:102420000904090CC18503D01BE002685268F1E77A
:102430000168CA6822F02002CA600168CA6822F4F2
:102440008072CA6001684A6922F001024A61202153
:1024500080F8421000214163026B012A03D0FFF78C
:10246000BDFA002008BD016301680C3151E8002F5E
:1024700022F0100241E80023002BF5D101680A6820
:10248000D20602D50A6849680091818DFFF7DEF80F
:10249000E7E7000070B5044600680169E26821F4CE
:1024A0004051114301612169A068084361690843F3
:1024B0002168CA6841F20C639A430243CA602068EB
:1024C0004169A26921F44071114341611E492068AC
:1024D000884202D1FEF7DCFC01E0FEF7C9FC00EB0C
:1024E000C00101EB0012606864218000B2FBF0F3D0
:1024F000B3FBF1F36FF018067343B2FBF0F5B2FBD8
:10250000F0F605EB8305322303EB0515B5FBF1F57A
:10251000B6FBF1F605F0F00505EB0615B2FBF0F69B
:10252000B2FBF0F0B0FBF1F06FF01802504306EB95
:10253000800003EB0010B0FBF1F0216800F00F0009
:102540002844886070BD00000038014081628285A7
:10255000C28500214164222180F84210016921B125
:102560000168CA6842F48072CA6001684A6942F030
:1025700001024A610068C16841F02001C160002089
:1025800070472DE9F843984617460D460446089EC5
:1025900024E0701C22D0FEF737FBA0EB0800B0420D
:1025A0001AD8CEB12068C168490717D5802D15D03B
:1025B000402D13D00168C94309070FD401680025D5
:1025C000406800902046FFF7DCFE0820606484F835
:1025D00040500120BDE8F8830320FBE72068006835
:1025E00035EA000004D00020B842D2D00020F1E744
:1025F0000120F9E70148FFF73BB800005C0000202C
:10260000FEE70907090E002804DB00F1E02080F84E
:102610000014704700F00F0000F1E02080F8141D56
:102620007047000070B540F283331C4622460625F1
:1026300009B1C0F10600B0FBF5F105FB110540F250
:10264000AE404FF41671062D13D2DFE805F00306F5
:10265000080B0E1004460B460BE0044600E0034650
:102660000A4606E00C46034603E00C4600E00B4633
:102670000246044801688C630168CB630068026409
:1026800070BD0000A4000020064A10B5536806493A
:10269000064C0968B1FBF4F141435068C01A884206
:1026A000FBD310BD001000E01800002040420F00D6
:1026B000A0B0FEF7B7FAFFF7D9FCFFF721FAFFF752
:1026C0003BFAFFF797FAFFF7B5FAFFF7B9FC0122DB
:1026D00049494A48FFF774F949A000F051FA50A05F
:1026E00030E0282114A800F0FDF90028F9D014AA40
:1026F00057A16846FDF79EFD684600F041FA57A1D4
:1027000014A8FDF737FFB8B156A114A8FDF732FFA2
:10271000A8B156A114A8FDF72DFFB0B11EAA55A16E
:1027200014A800F0FFF8A8B1BDF878100120FFF759
:10273000B3FA68B150A005E000F018F9D1E7FFF74F
:102740007FFC50A000F01CFACBE700F03FF9C8E78F
:102750004FA0F7E71EAA52A114A800F0E3F848B171
:10276000BDF878100020FFF797FA08B14DA0E9E70F
:102770004EA0E7E714AC1EAD052250A12046FDF7A0
:1027800087FE10B9641D00E0641C20782028FBD06F
:10279000C0B230380A282DD20A221FA92046FDF7E0
:1027A0001FFE1F9901E0491C1F910A78202AFAD0C8
:1027B00012F0FF0F1ED1B0F5B47F1BD82880BDF8F2
:1027C000782040A16846FDF735FD684600F0D8F94D
:1027D000BDF87800FFF7BAFA18B13EA000F0D0F9C2
:1027E000AAE7FFF7ADFA02463EA16846FDF722FDD3
:1027F0006846A7E740A0A5E7000000205C00002095
:102800000D0A3D3D3D2053544F5241474520444918
:102810005343205245414459203D3D3D0D0A00009F
:10282000506F7765722D6F6E2073746174653A20F6
:1028300053544F502E2053656E6420726561642F8F
:1028400068656C702066697273742E0D0A00000052
:1028500052583A2025730D0A000000007265616429
:102860000000000073746F700000000068656C70F9
:102870000000000063637700434357204F4B0D0A6D
:102880000000000053544F50204F4B0D0A00000031
:102890004343572053544F502F4641494C0D0A0093
:1028A000637700004357204F4B0D0A0043572053D6
:1028B000544F502F4641494C0D0A0000616E676C21
:1028C000650000005441524745543D25752064651C
:1028D000670D0A00504F534954494F4E204F4B0D3E
:1028E0000A000000504F534954494F4E2046414979
:1028F0004C3A2025730D0A004552523A2073656EFA
:10290000642068656C700D0A000000000448002116
:10291000026891630268D163006801647047000037
:10292000A4000020F8B5074615460E460846FDF7F8
:1029300090FD0446024631463846FDF7A9FD78B9B8
:102940003819017839B10A226946FDF749FD009925
:10295000097829B901E0012004E008B1142801D95F
:102960000020F8BD28800120F8BD000000B591B01E
:10297000FFF710FB002801DA08A00BE00A2190FB0A
:10298000F1F201FB120390FBF1F20BA16846FDF797
:1029900051FC684600F0F4F811B000BD41533536E3
:1029A0003030204641494C3A206E6F2076616C6988
:1029B000642050574D0D0A00414E474C453D256C53
:1029C000642E256C64206465670D0A0010B50AA0AA
:1029D00000F0D6F80BA000F0D3F818A000F0D0F863
:1029E0001EA000F0CDF82BA000F0CAF8BDE8104002
:1029F00030A000F0C5B80000436F6D6D616E647368
:102A00003A0D0A002020616E676C65302E2E616ED3
:102A1000676C65333630206F7220302E2E3336309F
:102A2000203D20636C6F7365642D6C6F6F70207038
:102A30006F736974696F6E0D0A0000002020726563
:102A40006164203D207072696E74204153353630C8
:102A50003020616E676C650D0A00000020206377EE
:102A60004E202F206363774E203D206F70656E2DC2
:102A70006C6F6F7020656C656374726963616C2044
:102A80006379636C65732C204E3D312E2E32300DF0
:102A90000A000000202073746F70203D20696D6D66
:102AA0006564696174652050574D206F66660D0A34
:102AB00000000000202068656C700D0A0000000016
:102AC000401A4FF4E16101E0A0F561608842FBDC4F
:102AD0000349884202DA00F56160FAE770470000B6
:102AE000F8F8FFFF2DE9F0478A4606460025FEF775
:102AF0008BF8074616B1BAF1020F02D20020BDE8EA
:102B0000F087DFF874904FF00008494699F802000A
:102B100099F80120904209D155B3FEF775F8C01B12
:102B2000782825D306F805800120E8E7134A145CCD
:102B3000401C00F03F008870FEF766F807460D2C39
:102B400013D00A2C11D0A4F120005E28DDD8AAF100
:102B500001008542D9D2A4F14100192801D82034BE
:102B6000E4B274556D1CEDB2CFE7002DCDD0D9E79E
:102B70000120FDF735FFC8E7000000201C00002001
:102B800010B50446FDF765FC214682B2BDE8104051
:102B90004FF4FA730148FEF761BF00005C000020AB
:102BA0002DE9F0410D4D07466E680D480D4ADFF8DE
:102BB00038800068B0FBF2F44C4306E06868801B84
:102BC000A04202D30020BDE8F08102214046FEF77A
:102BD00015F8B842F2D10120F5E70000001000E03E
:102BE0001800002040420F000008014010B50029E5
:102BF0000AD00878002807D005487844FDF7BAFCC9
:102C0000002801D0002010BD0248784410BD00000B
:102C10009A0500009205000090EA010F48BF81F07C
:102C2000004100F12082421A3CBF801A89184FEA05
:102C3000D0524FF07F4C1CEA410FA2EBD15318BF8A
:102C40009CEA026F00F03B804FF0004C4CEA002001
:102C50004CEA012121FA03FC10EB0C0C1ED202F10C
:102C6000FF325FEA1C2040EBC25038BF70471CF0B7
:102C70007F0F4FEA400C18BFBCF17F4F38BF704741
:102C8000C3F12003994008BF20F00100BCF17F4F41
:102C900038BF7047A0F1C04000F0D9B94FEA3C00FE
:102CA000000A40EBC25028BF1CF0FF0F4FEA400C57
:102CB000E6D018BFBCF17F4F38BF7047EAE79CEA07
:102CC000026F05D010EA5C0F08BF00F000407047AB
:102CD00010B500F076F900BF64FBBE3E4FF47F0CE8
:102CE0001CEAD0121EBF1CEAD11392EA0C0F93EA21
:102CF0000C0F00F0858090EA010F48BF42F480720B
:102D000040F4000C41F400002CF07F4120F07F40A3
:102D100000B58142A2EB03020FF2081CACEB504E4F
:102D2000C0F100009EF800E04FEA4E0E00FB0EFCE2
:102D300038BF49004FEA2C1C02F5FA020CFB0EF3D7
:102D40004FEACE1E4FEA112C4FEAC1210EEB635E13
:102D500042EB22420EFB0CFC4FEA1C5300FB03111A
:102D60004FEA112C4FEA01310EFB0CFC4FEADC4C10
:102D700000FB0C11C14228BF09184CEB03335DF86E
:102D800004EB10EB410143EBC250B2F57C0F38BFAE
:102D9000704729D512F0F00F1CBF00F1C04000F0C1
:102DA00000407047008182838485868788898B8C68
:102DB0008D8E8F919293959697999A9C9D9FA0A2A4
:102DC000A3A5A7A8AAACAEB0B2B3B5B7B9BCBEC0F4
:102DD000C2C5C7C9CCCED1D4D7D9DCDFE2E6E9EC95
:102DE000F0F3F7FAFE0000004FEA400C0CF1807C93
:102DF000BCF17E4F28BF7047B0F1C04000F027B94A
:102E000090EA010F0CEAD11348BF42F48072624588
:102E100038BF634507D213F47F0F16D080EA010054
:102E200000F00040704710B500F0CBF8097EFC3E82
:102E300000F005B880EA010000F00040704780EA29
:102E4000010000F0004000F002B912F47F0F04BF4F
:102E50000248704780EA010000F0F9B80000C07F26
:102E600041000B0ED3F19E0208D950F400034FEA43
:102E7000032323FA02F048BF4042704710B500F028
:102E8000A0F800BF49922480002070476FF00042F4
:102E900082EA200070470000B0FA80F310FA03F2D3
:102EA000C3F19D030AD0D90501EB1220530638BFA8
:102EB000704700F1010008BF20F0010070470000DA
:102EC0004FF47F0C1CEAD0121EBF1CEAD11392EA09
:102ED0000C0F93EA0C0F00F0478090EA010F48BFF7
:102EE00042F480724FF0004C4CEA00204CEA012181
:102EF00002EB0302A0FB0113A2F50002002918BF98
:102F000043F001035B0028BF4FEA330342EB224248
:102F10005FEA132C4CEBC2502EBFBCEB436FB2F5F3
:102F20007C0F70474FEA036CBCF1004F08BF20F0E4
:102F30000100B2F57C0F38BF70470BD582F0FF025D
:102F400012F5803FC8BF704700F1C040D8BF00F005
:102F50000040704700F5000C5FEA4C0C48BF70471A
:102F6000B0F1C04000F073B890EA010F0CEAD11341
:102F700048BF42F48072624538BF634504D280EA9C
:102F8000010000F00040704710B500F01AF800BFD3
:102F90008900013E00F007B800F009B85FEA410C73
:102FA0005FEA1C6C08D080EA010000F050B85FEACC
:102FB000400C5FEA1C6CF6D14FF00040A0F5800099
:102FC00070470EF1020E2EF0030E5EF8044B244201
:102FD00004D44FEA4102B2F17F4F11D84FEA4003C7
:102FE000B3F17F4F0CD80ED14FEAD07CB2F17F4FB6
:102FF0000CEB4C0C0CF1020C08BF4CEBD17C04E048
:103000004FF0080C01E04FEAD17C0CEB4C0324FAA2
:1030100003F404F00704B4F1040C06D20EEB840CA4
:10302000BDE810404CF0010C6047DFE80CF00708E9
:1030300002024FF00040A0F5800010BD084642009B
:1030400018BFD2F1807288BF00F0004010BDFF2190
:1030500041EAD050C005704790EA010F48BF81F0A7
:1030600000413FF5E0AD421A04D882F00042A0EBE7
:10307000020011444FEAD0524FF07F4C1CEA410F3E
:10308000A2EBD15318BF9CEA026F4AD04FF0004C1C
:103090004CEA00204CEA012121FA03FCB0EB0C0CB5
:1030A0000FD412F0FE0F36D05FEA4C001DD500128F
:1030B00040EBC25038BF70471CF03F0F18BF70473D
:1030C0000BE0A2F101025FEA1C2040EBC25038BFC6
:1030D00070471CF07F0F18BF7047C3F12003994061
:1030E00014BF401E20F00100704780084FEA1223F1
:1030F00008BF7047B0FA80FCA2EB0C02CCF1280CA0
:1031000060FA0CF093EA122F04BF00EBC250704734
:103110004FEAC3707047130A5FEADC1008BF7047BC
:10312000F6E79CEA026F04D010EA5C0F08BF0020AB
:10313000704710B5FFF745FF40DFF63E81F00040D5
:103140007047010202030405060708090A0B0C0D6B
:103150000E0F101000000000000000000102030428
:1031600006070809000000000102030449444C4519
:1031700000000000A4320008000000201C00000035
:103180006C010008C03200081C0000203407000059
:10319000880100081001000043000000F8FFFFFF55
:1031A000004040404040404040404141414141405A
:1031B000404040404040404040404040404040400F
:1031C000400502020202020202020202020202029E
:1031D00002202020202020202020200202020202A3
:1031E00002029090909090901010101010101010FB
:1031F0001010101010101010101010100202020207
:10320000020288888888888808080808080808084A
:103210000808080808080808080808080202020246
:10322000400000000000000000000000000000005E
:10323000000000000000000000000000000000008E
:10324000000000000000000000000000000000007E
:10325000000000000000000000000000000000006E
:10326000000000000000000000000000000000005E
:10327000000000000000000000000000000000004E
:10328000000000000000000000000000000000003E
:10329000000000000000000000000000000000002E
:1032A0000000000000000000000000006C31000879
:1032B00001000000100000000000000000127A0071
:0400000508000131BD
:00000001FF
